:020000040000FA
:1000000000008A110A167A2CF200030E8301F10017
:100010000A088A01F000040883160317A800831257
:1000200003130B1D1D288A110A1600268A110A12B5
:10003000831203130B11D8308100831203138B1C1E
:1000400029288A110A1605278A110A128312031316
:100050008B1083160317280883120313840070087B
:100060008A008301710E8300F20E720E0900831262
:100070000317620883120313D60083120317630861
:1000800083120313D7008312031764088312031328
:10009000D80083120317650883120313D9000030B8
:1000A0005902031D5D2800305802031D5D280030F1
:1000B0005702031D5D284C30560203182B290030CF
:1000C000831203135902031D6F2800305802031DC9
:1000D0006F2800305702031D6F2823305602031C7F
:1000E0002B2902302C2183120313D600033A031D5F
:1000F000CD2883160317900191018312031762081C
:1001000083120313D60083120317630883120313A9
:10011000D70083120317640883120313D8008312D5
:100120000317650883120313D9000530D607031897
:10013000D70A0319D80A0319D90A560883120317D4
:10014000E20083120313570883120317E30083129C
:100150000313580883120317E4008312031359088A
:1001600083120317E5000030831203135902031DA5
:10017000C32800305802031DC32800305702031D56
:10018000C3284C305602031C2B294B308312031713
:10019000E200E301E401E5012B2901302C21831267
:1001A0000313D600033A031D2B298316031790016E
:1001B000910183120317620883120313D60083127E
:1001C0000317630883120313D7008312031764080D
:1001D00083120313D80083120317650883120313D5
:1001E000D900FB30D607FF30031CD707FF30031CB4
:1001F000D807FF30031CD907560883120317E20003
:1002000083120313570883120317E30083120313A7
:10021000580883120317E40083120313590883124A
:100220000317E5000030831203135902031D22292E
:1002300000305802031D222900305702031D2229D5
:100240002330560203182B29233083120317E200B0
:10025000E301E401E501080083120313D200033037
:10026000FF0052088A110A1678278A110A1283128F
:100270000313D300D40153085A3ED2000030D500F6
:1002800000300318540FD5070230D2070318D50ADF
:100290005208831203138400831383120313551827
:1002A000831783120313000883120313D30008007B
:1002B00083120313CA010330FF00831203134A0899
:1002C0008A110A1678278A110A1283120313CB00A7
:1002D000CC014B085A3ECD000030CE000030031850
:1002E0004C0FCE074B085A3ECB004C0803184C0F5E
:1002F000003ECC00CB0A0319CC0A4B08831203132F
:1003000084008313831203134C188317831203137F
:10031000000883120313CF004D08831203138400D7
:100320008313831203134E1883174F08831203138A
:1003300080000430831203134A020318142A013088
:10034000831203138A00AD30831203134A07031C80
:10035000AC29831203138A0A8200B129CA29E3292E
:10036000FC290030FF0001308A110A12F3238A11A0
:100370000A1283120313CD004B0883120313840067
:100380008313831203134C1883174D08831203132E
:100390008000142A0130FF0001308A110A12F32371
:1003A0008A110A1283120313CD004B088312031320
:1003B00084008313831203134C1883174D08831290
:1003C00003138000142A0230FF0001308A110A1240
:1003D000F3238A110A1283120313CD004B088312F0
:1003E000031384008313831203134C1883174D08DF
:1003F000831203138000142A0330FF0001308A1196
:100400000A12F3238A110A1283120313CD004B0838
:100410008312031384008313831203134C1883176E
:100420004D088312031380000330FF00831203136F
:100430004A088A110A1678278A110A1283120313AE
:10044000CB00CC014B085A3ECB00003003184C0FB8
:10045000003ECC0002304B07CD00CE01CE0D4C0843
:10046000CE074D08831203138400831383120313F2
:100470004E18831783120313000883120313CF004F
:1004800004304F020318192B0230831203138A0021
:100490005230831203134F07031C512A8312031394
:1004A0008A0A8200562A912ABA2AF52A831203134D
:1004B0004B088312031384008313831203134C1815
:1004C000831783120313000883120313CF004F080E
:1004D000031D192B01304B07CF00D001D00D4C0864
:1004E000D0074F088312031384008313831203136E
:1004F0005018831783120313000883120313D100CB
:100500005108031D192B4D08831203138400831314
:10051000831203134E1883170130831203138000D4
:10052000192B0130831203134B07CF00D001D00DDC
:100530004C08D0074F0883120313840083138312DF
:100540000313501883178312031300088312031335
:10055000D1005108031D192B4D0883120313840089
:100560008313831203134E1883170230831203136D
:100570008000192B831203134B088312031384008A
:100580008313831203134C18831783120313000879
:1005900083120313CF00013A031D192B01304B07BF
:1005A000CF00D001D00D4C08D0074F0883120313A1
:1005B00084008313831203135018831783120313C9
:1005C000000883120313D100013A031D192B4D08B3
:1005D0008312031384008313831203134E188317AB
:1005E0000330831203138000192B83120313CB0AE9
:1005F0000319CC0A4B08831203138400831383125C
:1006000003134C1883178312031300088312031378
:10061000CF00013A031D192B4D08831203138400E8
:100620008313831203134E188317003083120313AE
:10063000800083120313CA0A04304A02031C5B2998
:100640003720080083120313C5007F08C60004305A
:1006500045020318682B0330831203138A003930D4
:10066000831203134507031C382B831203138A0AD2
:1006700082003D2B482B532B5E2B0130FE000030B7
:10068000FF0001308A110A1260268A110A12682BB3
:100690000130FE000130FF0001308A110A1260268D
:1006A0008A110A12682B0130FE000230FF0001306F
:1006B0008A110A1260268A110A12682B0130FE0084
:1006C0000330FF0001308A110A1260268A110A12D3
:1006D0000330FF008312031345088A110A16782796
:1006E0008A110A1283120313C700C80147085A3E31
:1006F000C7000030C50000300318480FC50702309E
:100700004707C800C901C90D4508C9074808831231
:1007100003138400831383120313491883174608B5
:10072000831203138000043083120313460203185C
:10073000F22B0330831203138A00A73083120313B2
:100740004607031CA62B831203138A0A8200AB2BD5
:10075000D12BD12BAB2B8312031347088312031326
:100760008400831383120313451883170130831207
:10077000031380000130831203134707C600C8012A
:10078000C80D4508C8074608831203138400831365
:100790008312031348188317013083120313800058
:1007A000F22B83120313470883120313840083136D
:1007B000831203134518831700308312031380003C
:1007C00083120313C70A0319C50A470883120313C8
:1007D0008400831383120313451883170030831298
:1007E00003138000080083160313B2007F08B300D0
:1007F000B4010530320203180E2D043083120313A6
:100800008A000B30831603133207031C0A2C831251
:1008100003138A0A8200102C432C762CA92CDC2C82
:10082000003083160313B5000130B2003308003CDA
:100830000319212C83160313B20DB50D013E031CC1
:100840001A2C83120313050883160313B600B7018D
:100850003608B2050030B5053508B7003208B600D5
:100860003308003C03193E2C031083160313B71BF7
:100870000314B70CB60C013E031C342C831603136F
:100880003608B4000E2D003083160313B500013076
:10089000B2003308003C0319542C83160313B20D25
:1008A000B50D013E031C4D2C83120313060883165D
:1008B0000313B600B7013608B2050030B505350898
:1008C000B7003208B6003308003C0319712C03103E
:1008D00083160313B71B0314B70CB60C013E031C9D
:1008E000672C831603133608B4000E2D00308316D0
:1008F0000313B5000130B2003308003C0319872C04
:1009000083160313B20DB50D013E031C802C831218
:100910000313070883160313B600B7013608B205A0
:100920000030B5053508B7003208B6003308003C82
:100930000319A42C031083160313B71B0314B70C5D
:10094000B60C013E031C9A2C831603133608B40020
:100950000E2D003083160313B5000130B2003308AA
:10096000003C0319BA2C83160313B20DB50D013EDA
:10097000031CB32C83120313080883160313B60059
:10098000B7013608B2050030B5053508B7003208A2
:10099000B6003308003C0319D72C03108316031349
:1009A000B71B0314B70CB60C013E031CCD2C8316E9
:1009B00003133608B4000E2D003083160313B50060
:1009C0000130B2003308003C0319ED2C83160313E9
:1009D000B20DB50D013E031CE62C8312031309086A
:1009E00083160313B600B7013608B2050030B5050B
:1009F0003508B7003208B6003308003C03190A2D49
:100A0000031083160313B71B0314B70CB60C013E77
:100A1000031C002D831603133608B400831603133A
:100A20003408080083160313AB007F08AC00AD0147
:100A3000003083160313AF000130AE002D08003CD8
:100A40000319292D83160313AE0DAF0D013E031CB0
:100A5000222D83160313B1012C08B000AE0500301F
:100A6000AF052F08B1002E08B0002D08003C031977
:100A7000432D031083160313B11B0314B10CB00CE8
:100A8000013E031C392D831603133008AE00FE000F
:100A90002D08FF002B08542583160313AD0A0830D8
:100AA0002D02031C182D080083160313A7007F08CE
:100AB000A8007E08A900053027020318482E05303B
:100AC000831203138A006D30831603132707031C58
:100AD0006C2D831203138A0A8200722D9D2DC82D5E
:100AE000F32D1E2E013083160313A7002808003CA7
:100AF0000319802D83160313A70D013E031C7A2DC5
:100B000083160313A709831203130508831603131F
:100B1000A7052908AA002808003C0319952D83166B
:100B20000313AA0D013E031C8F2D831603132A08FD
:100B30002704831203138500482E01308316031304
:100B4000A7002808003C0319AB2D83160313A70D3B
:100B5000013E031CA52D83160313A709831203135B
:100B6000060883160313A7052908AA002808003CD5
:100B70000319C02D83160313AA0D013E031CBA2DC1
:100B8000831603132A082704831203138600482EB2
:100B9000013083160313A7002808003C0319D62D43
:100BA00083160313A70D013E031CD02D83160313D8
:100BB000A70983120313070883160313A70529083F
:100BC000AA002808003C0319EB2D83160313AA0D75
:100BD000013E031CE52D831603132A082704831204
:100BE00003138700482E013083160313A70028083B
:100BF000003C0319012E83160313A70D013E031CAD
:100C0000FB2D83160313A709831203130808831609
:100C10000313A7052908AA002808003C0319162E6B
:100C200083160313AA0D013E031C102E8316031313
:100C30002A082704831203138800482E01308316E4
:100C40000313A7002808003C03192C2E8316031356
:100C5000A70D013E031C262E83160313A70983123A
:100C60000313090883160313A7052908AA002808F7
:100C7000003C0319412E83160313AA0D013E031CE9
:100C80003B2E831603132A082704831203138900BB
:100C90000800080083160313A4007F08A500A6011E
:100CA000831603132508FE002608FF00240860268B
:100CB00083160313A60A08302602031C502E0800D0
:100CC00083160313A0007F08A1007E08A200053050
:100CD00020020318542F0630831203138A00793040
:100CE000831603132007031C782E831203138A0A2A
:100CF00082007E2EA92ED42EFF2E2A2F013083169D
:100D00000313A0002108003C03198C2E8316031343
:100D1000A00D013E031C862E83160313A009831623
:100D20000313050883160313A0052208A300210856
:100D3000003C0319A12E83160313A30D013E031CCF
:100D40009B2E8316031323082004831603138500A8
:100D5000542F013083160313A0002108003C03190F
:100D6000B72E83160313A00D013E031CB12E83166C
:100D70000313A00983160313060883160313A005A3
:100D80002208A3002108003C0319CC2E831603136C
:100D9000A30D013E031CC62E831603132308200453
:100DA000831603138600542F013083160313A0000B
:100DB0002108003C0319E22E83160313A00D013E07
:100DC000031CDC2E83160313A009831603130708E4
:100DD00083160313A0052208A3002108003C031971
:100DE000F72E83160313A30D013E031CF12E831669
:100DF000031323082004831603138700542F0130A4
:100E000083160313A0002108003C03190D2F83163D
:100E10000313A00D013E031C072F83160313A00923
:100E200083160313080883160313A0052208A300E2
:100E30002108003C0319222F83160313A30D013E42
:100E4000031C1C2F8316031323082004831603138B
:100E50008800542F013083160313A0002108003CA2
:100E60000319382F83160313A00D013E031C322FE4
:100E700083160313A00983160313090883160313AB
:100E8000A0052208A3002108003C03194D2F83165A
:100E90000313A30D013E031C472F831603132308DE
:100EA0002004831603138900080083120317D2005D
:100EB0007F08D10099278316031391159927831270
:100EC0000313130883120317D300D4019927831245
:100ED000031751085204003003190130D100510C9E
:100EE0000318752F831603139112031C7A2F831690
:100EF0000313911683160313111683120317530855
:100F0000FF00540808007F0883120317D0009927B8
:100F100083120317500883120313930008009927C4
:100F20008316031311150800992783160313111450
:100F300008008316031311081F39031D992F141974
:100F4000992F080083120317CE007F08CD007E087A
:100F5000CC007D08CB0083160313871507162830B5
:100F60008312031394008316031391018312031752
:100F70004B08F9004C08FA004D08FB004E08FC0035
:100F80009030FD000130FE000030FF0000308A117B
:100F90000A16CC238A110A1283120317CE007F0887
:100FA000CD007E08CC007D08CB00F9004C08FA008B
:100FB0004D08FB004E08FC000030FD001230FE0022
:100FC0007A30FF0000308A110A1616258A110A129B
:100FD00083120317CE007F08CD007E08CC007D0869
:100FE000CB00CF004F038316031393009401080036
:0A0FF0000A340034003400340034E9
:1010000083120313A3007F08A2007E08A1007D08BD
:1010100083120313BD0083120313A0007C08A700F2
:101020007B08A6007A08A500790883120313C10083
:1010300083120313A400210883120313BE0083123A
:101040000313220883120313BF0083120313230820
:1010500083120313C00083120313250883120313A2
:10106000C20083120313260883120313C3008312E2
:101070000313270883120313C400831203133D08CC
:1010800083120313A400A000831203133E088312EB
:101090000313A500A100831203133F088312031357
:1010A000A600A20083120313400883120313A700B3
:1010B000A300260D270DA400A000A101A10DA201EF
:1010C000A301A501A601A7012408A0000030A100EA
:1010D00083120313410883120313A600A200831294
:1010E0000313420883120313A700A3008312031300
:1010F000430883120313A800A400831203134408B7
:1011000083120313A900A500280D290DA600A20033
:10111000A301A30DA401A501A701A801A90120080D
:10112000A2002108A3000030A31BFF30A500A400EB
:1011300026082202A6002708031C270FA12823083F
:10114000A42883120313230283120313A700280881
:10115000031C280FAD282408B0288312031324028F
:1011600083120313A8002908031C290A2502A900D9
:101170002608A0002708A1007E30A0070318A10AB6
:10118000831203133D0883120313A600A2008312E7
:1011900003133E0883120313A700A3008312031353
:1011A0003F0883120313A800A4008312031340080E
:1011B00083120313A500A9008039031D0130A2008A
:1011C00083120313410883120313AA00A60083129B
:1011D0000313420883120313AB00A7008312031307
:1011E000430883120313AC00A800831203134408BE
:1011F00083120313A900AD008039031D0130A6003E
:10120000A20683120313410883120313A60083125C
:101210000313420883120313AA0083120313430823
:1012200083120313AB0083120313440883120313C6
:10123000AC0026082A042B042C04031D4529831224
:101240000313C101C201C030C3007F30C400410894
:1012500083120313A600831203134208831203139D
:10126000AA0083120313430883120313AB008312F3
:101270000313440883120313AC002608FD002A0858
:10128000FE002B08FF002C08FB2A831203133D08E5
:1012900083120313A600831203133E088312031361
:1012A000AA00831203133F0883120313AB008312B7
:1012B0000313400883120313AC0026082A042B04EE
:1012C0002C04031D6B290030FD000030FE000030AF
:1012D000FF000030FB2A831203133D08831203131F
:1012E000AD00A600831203133E0883120313AE0061
:1012F000AA00831203133F0883120313AF00AB004D
:1013000083120313400883120313B000AC002D08AE
:10131000A6002E08AA007F302F05AB00AC01AB174A
:1013200083120313410883120313B100AD0083122B
:101330000313420883120313B200AE008312031397
:10134000430883120313B300AF008312031344084E
:1013500083120313B400B0003208AE007F303305AF
:10136000AF00B001AF170030803EB5000030803EC6
:101370003502031DC5292F082B02031DC5292E0880
:101380002A02031DC5292D0826020318D22903109D
:1013900083120313A60DAA0DAB0DAC0DFF30A007F1
:1013A000031CA10383120313B101B201B301013085
:1013B000B400B501B601B701B801831203133108B7
:1013C00032043304340403192A2A2C08803EB9005D
:1013D0003008803E3902031DF7292F082B02031D18
:1013E000F7292E082A02031DF7292D082602031CBF
:1013F0001D2A831203133508B9003608BA003708CE
:10140000BB003808BC0031083904B50032083A0482
:10141000B60033083B04B70034083C04B8002D087C
:10142000A6022E08031C2E0FAA022F08031C2F0F42
:10143000AB023008031C300FAC02031083120313FD
:10144000A60DAA0DAB0DAC0D0310B40CB30CB20C71
:10145000B10CDD2983120313B50A0319B60A031967
:10146000B70A0319B80AA00A0319A10A0310B81B86
:101470000314B80CB70CB60CB50C3508A60036082A
:10148000AA003708AB003808AC007F302B05B70046
:101490002108803E7F3E031D4F2A00302002031C9E
:1014A0007E2A83120313220803195C2AA601AA01CB
:1014B000AB018030AC00622A83120313A601AA019B
:1014C000AB01AC0183120313AB177F30AC042608C9
:1014D00083120313BD00831203132A08831203131C
:1014E000BE00831203132B0883120313BF00831261
:1014F00003132C0883120313C000DC2A0314831285
:101500000313A11F0310031C8C2A83120313BD01B4
:10151000BE01BF01C001DC2A003083120313220484
:101520000319982AA201A601AA018030AB009E2AC5
:1015300083120313A201A601AA01AB0183120313B4
:101540002008AC002108AD000030AD1BFF30AF001B
:10155000AE002D0C2C0CB100B001B00CA101A0010B
:101560000030A2040030A6043008AA043108AB04FD
:101570003508A000220483120313BD008312031355
:10158000B5003608A100260483120313BE0083129F
:101590000313B6003708AC002A0483120313BF00FC
:1015A00083120313B7003808AD002B048312031312
:1015B000C00083120313B800831203133D08831283
:1015C0000313A000831203133E0883120313A10028
:1015D000831203133F0883120313A2008312031321
:1015E000400883120313A6002008FD002108FE0016
:1015F0002208FF002608080000308316031726047F
:101600000319AF2B83120317620883120317B90063
:1016100083120317630883120317BA008312031798
:10162000640883120317BB00831203176508831233
:101630000317BC00E830F9000330FA000030FB006B
:101640000030FC003908FD003A08FE003B08FF00AE
:101650003C088A110A169A258A150A128312031762
:10166000BC007F08BB007E08BA007D08B90064306A
:10167000F9000030FA000030FB000030FC003908AF
:10168000FD003A08FE003B08FF003C088A110A16DC
:101690009A258A150A1283120317BC007F08BB0023
:1016A0007E08BA007D08B9000A30F9000030FA005F
:1016B0000030FB000030FC003908FD003A08FE0055
:1016C0003B08FF003C088A110A1616258A150A12E3
:1016D00083120317BC007F08BB007E08BA007D0898
:1016E000B900BD00FF000230102583120317620805
:1016F00083120317B90083120317630883120317B9
:10170000BA0083120317640883120317BB00831205
:101710000317650883120317BC000A30F900003074
:10172000FA000030FB000030FC003908FD003A08E8
:10173000FE003B08FF003C088A110A169A258A150C
:101740000A1283120317BC007F08BB007E08BA0090
:101750007D08B900BD00FF00033010255B2C83120B
:1017600003175E0883120317B900831203175F087B
:1017700083120317BA00831203176008831203173A
:10178000BB0083120317610883120317BC00E83003
:10179000F9000330FA000030FB000030FC0039088B
:1017A000FD003A08FE003B08FF003C088A110A16BB
:1017B0009A258A150A1283120317BC007F08BB0002
:1017C0007E08BA007D08B9006430F9000030FA00E4
:1017D0000030FB000030FC003908FD003A08FE0034
:1017E0003B08FF003C088A110A169A258A150A123E
:1017F00083120317BC007F08BB007E08BA007D0877
:10180000B9000A30F9000030FA000030FB00003067
:10181000FC003908FD003A08FE003B08FF003C08C8
:101820008A110A1616258A150A1283120317BC009C
:101830007F08BB007E08BA007D08B900BD00FF002C
:1018400002301025831203175E0883120317B900B4
:10185000831203175F0883120317BA00831203175A
:10186000600883120317BB008312031761088312F9
:101870000317BC000A30F9000030FA000030FB000A
:101880000030FC003908FD003A08FE003B08FF006C
:101890003C088A110A169A258A150A128312031720
:1018A000BC007F08BB007E08BA007D08B900BD00FF
:1018B000FF00033010250030FF0002302A250030E1
:1018C000FF0003302A25831203173E086C3E831263
:1018D0000317B90001300318013EBA00390883121A
:1018E000031384008313831203173A188317831298
:1018F0000313000883120317BB00AD3EB900173075
:101900000318013EBA003908FE003A08FF00803093
:101910008A110A16A2268A150A1283120317BB001F
:10192000FF0003308A110A1212258A150A12831643
:101930000317160883120317B900FF008312031759
:101940003E082A25831203173E08033A031DAB2CD9
:101950000230BE00AE2C83120317BE0A08008312A9
:101960000317B7006C3EB70001300318013EB80002
:101970003708831203138400831383120317381864
:101980008317831203130008080083120317B6009D
:101990000430360203180E2D0C30831203138A0014
:1019A000DA30831203173607031CD92C8312031372
:1019B0008A0A8200DE2CEA2CF62C022D0230FF006F
:1019C00000308A110A12F3238A150A1283120317B0
:1019D000B6000F2D0330FF0000308A110A12F323E6
:1019E0008A150A1283120317B6000F2D0430FF0068
:1019F00000308A110A12F3238A150A128312031780
:101A0000B6000F2D0530FF0000308A110A12F323B3
:101A10008A150A1283120317B6000F2D0030080032
:101A200083120317B3007F08B40033086C3EB30081
:101A300001300318013EB5003308831203138400FC
:101A40008313831203173518831734088312031383
:101A50008000080083120317B3007F08B40004302D
:101A600033020318782D0D30831203138A0041309E
:101A7000831203173307031C402D831203138A0AB2
:101A80008200452D522D5F2D6C2D831203173408D3
:101A9000FE000230FF0000308A110A1254258A1518
:101AA0000A12782D831203173408FE000330FF005A
:101AB00000308A110A1254258A150A12782D8312D1
:101AC00003173408FE000430FF0000308A110A12A8
:101AD00054258A150A12782D831203173408FE0044
:101AE0000530FF0000308A110A1254258A150A12A7
:101AF000080083120317B0007F08B1007E08B2000F
:101B00000030FF0003308A110A124A268A150A1291
:101B1000B730FE001730FF0080308A110A16A22667
:101B20008A150A12FF0003308A110A1212258A153B
:101B30000A1204308312031730020318DC2D0D3013
:101B4000831203138A00AD30831203173007031C7E
:101B5000AC2D831203138A0A8200B12DBC2DC72D30
:101B6000D22D0030FE000230FF0000308A110A1230
:101B700060268A150A12DC2D0030FE000330FF00BB
:101B800000308A110A1260268A150A12DC2D0030F4
:101B9000FE000430FF0000308A110A1260268A1508
:101BA0000A12DC2D0030FE000530FF0000308A11E3
:101BB0000A1260268A150A12831203173108FF00E1
:101BC00030088A150A122A258A150A128312031769
:101BD0003208FF0030088A150A1210258A150A12E9
:101BE000080083120317EB006026013A031DFF2D46
:101BF0000030FF00831203176B080626052E013004
:101C0000FF00831203176B080626080083120317D0
:101C1000E9007F08EA00690803191F2E6908013AE4
:101C200003192C2E6908023A0319392E6908033A60
:101C30000319462E6908073A0319532E5F2E8312A3
:101C400003176A08FE000030FF0001308A110A12F3
:101C500054258A150A125F2E831203176A08FE00A4
:101C60000130FF0001308A110A1254258A150A1228
:101C70005F2E831203176A08FE000230FF00013056
:101C80008A110A1254258A150A125F2E831203172D
:101C90006A08FE000330FF0001308A110A12542541
:101CA0008A150A125F2E831203176A08FE00073096
:101CB000FF0001308A110A1254258A150A12080001
:101CC00083120317E900EA0169080319782E6908ED
:101CD000013A0319842E6908023A0319902E690803
:101CE000033A03199C2E6908073A0319A82EB32E4C
:101CF0000030FF0001308A110A12F3238A150A12FC
:101D000083120317EA00B32E0130FF0001308A115D
:101D10000A12F3238A150A1283120317EA00B32E5C
:101D20000230FF0001308A110A12F3238A150A12C9
:101D300083120317EA00B32E0330FF0001308A112B
:101D40000A12F3238A150A1283120317EA00B32E2C
:101D50000730FF0001308A110A12F3238A150A1294
:101D600083120317EA00831203176A080800831618
:101D70000317170883120317E8000319C82E680811
:101D8000013A0319D12E6808033A0319EB2EF32EFA
:101D90000130FF0007308A150A1206268A150A123A
:101DA000F32E83160317140883120317E800323A40
:101DB000031DDF2E0730F1258316031794018316C8
:101DC0000317140883120317E800E80A680883164B
:101DD00003179400F32E0030FF0007308A150A1213
:101DE00006268A150A12080083120317E6007F08E8
:101DF000E700660803190D2F6608013A0319182F2A
:101E00006608023A0319232F6608033A03192E2F96
:101E10006608073A0319392F432F0030FE000030BF
:101E2000FF0001308A110A1260268A150A12432F18
:101E30000030FE000130FF0001308A110A126026D6
:101E40008A150A12432F0030FE000230FF000130D5
:101E50008A110A1260268A150A12432F0030FE00EA
:101E60000330FF0001308A110A1260268A150A1217
:101E7000432F0030FE000730FF0001308A110A12A4
:101E800060268A150A12831203176708FF00660886
:101E90008A150A1206268A150A12080083160317E5
:101EA0001508831603179B00143A031DEC2F02300C
:101EB0008A110A1674218A150A12831603179E00C6
:101EC0009C007F089B0083120317DE008316031714
:101ED0009D001E0883120317DF000030E000E100C0
:101EE000831603171D08F9001E08FA000030FB00D6
:101EF0000030FC00EE30FD000230FE000030FF003C
:101F000000308A110A16CC238A150A128316031789
:101F10009E007F089D007E089C007D089B00FD00C0
:101F20001C08FE001D08FF001E088A110A160D235A
:101F30008A150A12831603179E007F089D007E08EB
:101F40009C007D089B000030F900D030FA00BF30C3
:101F5000FB004430FC001B08FD001C08FE001D08AF
:101F6000FF001E088A150A1200208A150A1283161D
:101F700003179E007F089D007E089C007D089B0043
:101F8000FD001C08FE001D08FF001E088A110A162D
:101F900025228A150A12831603179E007F089D00CA
:101FA0007E089C007D089B0083120317DE008316C9
:101FB00003171C0883120317DF00831603171D087D
:101FC00083120317E000831603171E0883120317FA
:101FD000E10083160317950183160317150883166E
:101FE00003179F009F0A1F08831603179500080018
:101FF00001308A110A16DF218A150A1208000134FD
:102000000030FF0002308A150A122A258A110A16AA
:102010000030FF0003308A150A122A258A110A1699
:10202000831603179801990103309700831603174D
:10203000900191019201930183120317DE01DF01E8
:10204000E001E101080083160317980199010330AC
:10205000970083160317120883160313D7008316FD
:102060000317130883160313D8005708643A031D97
:102070004D285808003A031D4D28831603171608EB
:1020800083160313D7000130D706570883160317AA
:102090009600831603179201930183160317120803
:1020A00083160313D700831603171308831603132D
:1020B000D800D70A0319D80A5708831603179200C5
:1020C000831603135808831603179300100883160A
:1020D0000313D70083160317110883160313D800C0
:1020E000D70A0319D80A57088316031790008316D6
:1020F0000313580883160317910008000130831654
:1021000003179600831203175E0883160313CB0090
:10211000831203175F0883160313CC00831203177F
:10212000600883160313CD0083120317610883161A
:102130000313CE0083120317620883160313CF0024
:1021400083120317630883160313D0008312031747
:10215000640883160313D1008312031765088316DE
:102160000313D200FB304F07D300FF30D4005008D8
:102170000318500FD407FF30D50051080318510F32
:10218000D507FF30D60052080318520FD6074E0865
:102190005602031DD5284D085502031DD5284C08AD
:1021A0005402031DD5284B085302031CDE280130BE
:1021B00083160317970098009901142983120317B7
:1021C0005E0883160313CB00831203175F08831680
:1021D0000313CC0083120317600883160313CD008A
:1021E00083120317610883160313CE000530CF074F
:1021F0000318D00A0319D10A0319D20A52084E0251
:10220000031D0C2951084D02031D0C2950084C02D6
:10221000031D0C294F084B02031C142983160317B6
:1022200097019801013099000800831603171008E0
:1022300083160313C90083160317110883160313AB
:10224000CA004908E83A031D2B294A08033A031D2E
:102250002B297E202C292320080083120313ED0054
:1022600004306D05EE0003106E0CEF000310EF0C50
:102270006F0C03183E29831203139F12031C43297A
:10228000831203139F160230831203136D05EE00B1
:1022900003106E0CEF006F0C031851298312031307
:1022A0001F12031C5629831203131F1683120313D4
:1022B0006D080139EE00ED006D0C031862298312E0
:1022C00003139F11031C6729831203139F158316A1
:1022D00003139F17831203131F141F158B170B175C
:1022E000831603130C17080083120313E90004304C
:1022F0006905EA0003106A0CEB000310EB0C6B0C91
:1023000003188529831203139F12031C8A29831241
:1023100003139F160230831203136905EA000310AA
:102320006A0CEB006B0C03189829831203131F121D
:10233000031C9D29831203131F16831203136908BC
:102340000139EA00E900690C0318A9298312031373
:102350009F11031CAE29831203139F1583160313C9
:102360009F17831203131F141F1583120313E90110
:10237000831203131F1DBF2983120313E90A83125B
:1023800003136908EA00013A0319B52983120313FC
:102390001E0883120313EC00E900EA01EB01831627
:1023A00003131E0883120313E900EA016908EB0412
:1023B0000030EC046B08FF006C0808000800831272
:1023C0000313E600831203131F1004308312031358
:1023D0006605E7000310670CE8000310E80C680CC2
:1023E0000318F529831603131F13031CFA298316F8
:1023F00003131F170230831203136605E70003104F
:10240000670CE800680C0318082A831203139F1353
:10241000031C0D2A831203139F17831203136608EC
:102420000139E700E600660C0318192A831203132A
:102430001F13031C1E2A831203131F178316031373
:102440009F111F119F141F10080083120317930080
:102450007F0892007E0891007D0890008312031788
:102460009C00831203171108831203179D00831227
:1024700003171208831203179E0083120317130811
:10248000831203179F001C08831203179000831206
:1024900003171D08831203179100831203171E08E8
:1024A000831203179200831203171F088312031766
:1024B000930010081104120413040319822A8312D2
:1024C00003171C088312031794009000831203174C
:1024D0001D088312031795009100831203171E082D
:1024E0008312031796009200831203171F088312AA
:1024F0000317930097008039031D013090001008E6
:1025000003198A2A0030FD000030FE000030FF0071
:1025100000300C2B831203171C088312031797003B
:102520009000831203171D0883120317980094006C
:10253000831203171E088312031799009500831254
:1025400003171F08831203179A009600190D1A0D1E
:10255000970090009401940D9501960198019901BE
:102560009A016A309707FF30031C9807FF30031C5D
:102570009907FF30031C9A07170890001808940069
:10258000831203171C088312031799009500831206
:1025900003171D08831203179A009600831203176E
:1025A0001E08831203179B009700831203171F084E
:1025B000831203179800190895001A0896007F30B7
:1025C0001B0597009801971790099409900A031921
:1025D000940A1008901BF92A003C0319032B83125C
:1025E0000317980C970C960C950C013E031CEF2AD0
:1025F000032B031083120317950D960D970D980D5D
:10260000013E031CFA2A831203171508FD00160861
:10261000FE001708FF001808080083160313DC00EB
:102620007F08DB007E08DA007D08D9005A045B04CD
:102630005C04031D232B0030FD000030FE00003041
:10264000FF000030CB2B963083160313DD00DE0134
:10265000831603135C08FF390319372B0310DC0CB6
:10266000DB0CDA0CD90CDD0A0319DE0A282B00304A
:10267000831603135C02031D472B80305B02031D8E
:10268000472B00305A02031D472B00305902031814
:10269000552B031083160313D90DDA0DDB0DDC0D5A
:1026A000FF30DD07031CDE03372B831603135D08A1
:1026B000DF005E08E0005A08E2007F305B05E300BF
:1026C000E4015908E100FF3A031D7D2B6208FF3A3F
:1026D000031D7D2B63087F3A031D7D2B6408003AA0
:1026E000031D7D2BD901DA01DB01DC0101305D071F
:1026F000DF00E001E00D5E08E00783160313DB1343
:102700005F08DD006008DE000030DE1BFF30E20005
:10271000E1005E0C5D0CE400E301E30CE001DF018D
:102720000030D9040030DA046308DB046408DC04F8
:10273000590883160313E500831603135A088316FA
:102740000313E600831603135B0883160313E700E5
:10275000831603135C0883160313E80065088316C9
:102760000313D90083160313660883160313DA00D4
:1027700083160313670883160313DB008316031302
:10278000680883160313DC005908FD005A08FE0090
:102790005B08FF005C08080083160313BB007F087A
:1027A000BA007E08B9007D08B8007C08BF007B082D
:1027B000BE007A08BD007908BC00C001C101C20199
:1027C000C3010830C40083160313381CF52B3C08E2
:1027D000C0073D0803183D0FC1073E0803183E0F10
:1027E000C2073F0803183F0FC307831603133808B7
:1027F000C5003908C6003A08C7003B08C800461C97
:10280000152C3E08C8003D08C700C5010030C007B0
:102810003C08C6000318460FC10747080318470FB6
:10282000C20748080318480FC30783160313380864
:10283000C5003908C6003A08C7003B08C800471C55
:10284000352C3D08C8003C08C700C601C501003052
:10285000C00700300318460FC10747080318470F89
:10286000C20748080318480FC30783160313380824
:10287000C5003908C6003A08C7003B08C800481C14
:10288000542C3C08C800C701C601C5010030C00770
:1028900000300318460FC10747080318470FC20747
:1028A00048080318480FC307831603133808C500E8
:1028B0003908C6003A08C7003B08C8000310480C96
:1028C000BB00470CBA00460CB900450CB800031019
:1028D000BC0DBD0DBE0DBF0D4403C500C4004508B1
:1028E000031DE32B4008FD004108FE004208FF00E5
:1028F000430808009930FE001730FF0080308A112D
:102900000A16B5268A110A1683120317C0007F081B
:10291000BF009B30C1001730C200831203173F086D
:10292000C3004008C400FF30BF07031CC0034308B6
:1029300044040319122D04304107C300C401C40D1F
:102940004208C4074308FE004408FF0080308A1193
:102950000A16B5268A110A1683120317C6007F08C5
:10296000C5004108FE004208FF0080308A110A16A7
:10297000B5268A110A1683120317C800C4007F08FF
:10298000C700C30002304107C300C401C40D4208A0
:10299000C4074308FE004408FF0080308A110A166D
:1029A000B5268A110A1683120317C400CA007F08CD
:1029B000C300C900831203174508C9004608CA00AE
:1029C000FF30C507031CC60349084A0403190B2D31
:1029D0004708FE004808FF0080308A110A16A22628
:1029E0008A110A1683120317C900430883120313BE
:1029F0008400831383120317441883174908831232
:102A00000313800083120317C70A0319C80AC30AF5
:102A10000319C40ADA2C063083120317C1070318FE
:102A2000C20A8D2C8A110A16542E0800831203172D
:102A3000A3007F08A2007E08A1007D08A0007C08FA
:102A4000A7007B08A6007A08A5007908A400A801C1
:102A5000A901AA01AB010130AC00AD01AE01AF018B
:102A60002408250426042704031D3E2DFF30FD0005
:102A7000FF30FE00FF30FF00FF30992D8312031757
:102A8000A71B4D2D0310A40DA50DA60DA70D03101A
:102A9000AC0DAD0DAE0DAF0D3E2D831203172C08FE
:102AA0002D042E042F040319902D27082302031D43
:102AB000632D26082202031D632D25082102031D14
:102AC000632D24082002031C832D831203172C0876
:102AD000A8072D0803182D0FA9072E0803182E0F7D
:102AE000AA072F0803182F0FAB072408A0022508F8
:102AF000031C250FA1022608031C260FA20227088B
:102B0000031C270FA302031083120317A70CA60CA4
:102B1000A50CA40C0310AF0CAE0CAD0CAC0C4D2DE1
:102B2000831203172808FD002908FE002A08FF0069
:102B30002B08080083120317D8007F08D7007E08EF
:102B4000D6007D08D5007C08DC007B08DB007A0815
:102B5000DA007908D9005A045B045C04031DB82D1F
:102B6000FF30FD00FF30FE00FF30FF00FF30FF2D83
:102B7000013083120317DD0083120317DC1BC72DFE
:102B80000310D90DDA0DDB0DDC0DDD0ABC2D003094
:102B9000831203175D040319F62D5C085802031D08
:102BA000DB2D5B085702031DDB2D5A085602031D5F
:102BB000DB2D59085502031CED2D8312031759080C
:102BC000D5025A08031C5A0FD6025B08031C5B0F80
:102BD000D7025C08031C5C0FD80203108312031792
:102BE000DC0CDB0CDA0CD90CDD03C72D83120317C8
:102BF0005508FD005608FE005708FF005808080059
:102C0000831603171A0883160317A700013A031D3A
:102C10002D2E8A110A1258218A110A168A150A12B3
:102C2000FC228A110A168A150A124E278A110A16E0
:102C30008A150A12B7268A110A168A110A1655270A
:102C40008A110A168A110A1632278A110A168A115F
:102C50000A1615218A110A16422E00308316031710
:102C60002704031D422E8A110A1600208A110A1613
:102C70008A110A1655278A110A168A110A1632274E
:102C80008A110A160800831203138B168B178316FA
:102C90000313811281120800831603138116811118
:102CA00001158114011408000030FF0002308A1160
:102CB0000A1222238A110A160030FF0001308A11FD
:102CC0000A1222238A110A160A30FE000030FF0081
:102CD00002308A150A1279258A110A160A30FE0076
:102CE0000030FF0003308A150A1279258A110A166E
:102CF0008A110A166D278A110A168A110A164A279E
:102D00008A110A160030FF0007308A150A12F426CD
:102D10008A110A168A150A12F8278A110A1628300B
:102D200083120317E200E301E401E5018A110A16A8
:102D30004C268A110A168A110A1643268A110A1687
:102D4000A02E0800003A0319A92E803A0319B02ECC
:102D500000347E08840083137F188317000808005E
:102D60007F088A007E0882000800003A0319BD2E01
:102D7000803A0319C72EFF0100347E0884008313B4
:102D80007F1883170008FF00840A000808008A11D2
:102D90000A16B026FD00FE0FFF03FF0A8A110A166D
:102DA000B026FC007D08FF007C0808008316031392
:102DB000E900EA01EB01831603136908EC00ED0159
:102DC00000306B02031DE62E6C086A020318042F04
:102DD000783083160313EC00ED01FF3083160313E4
:102DE0006C07EE00FF30EF006D0803186D0FEF0762
:102DF0006E08EC006F08ED006E086F04031DED2EE9
:102E0000EA0A0319EB0ADB2E0800831603171A08D7
:102E100083160317A500013A031D122F831603170B
:102E20009A011C2F0030831603172504031D1C2F45
:102E30000130831603179A0008000130FE000030AD
:102E4000FF0001308A110A1260268A110A168312C5
:102E500003138B170B168316031301178312031327
:102E60008B1008008316031719084027080002304A
:102E7000FF0002308A110A12F3238A110A16080091
:102E8000FE000230FF0002308A110A1254258A1116
:102E90000A1608000030FE000230FF0002308A11DE
:102EA0000A1260268A110A160800831603171808EA
:102EB000632708000530FF0002308A110A12F3234D
:102EC0008A110A160800FE000530FF0002308A1140
:102ED0000A1254258A110A1608000030FE00053037
:102EE000FF0002308A110A1260268A110A160800B1
:102EF00083160317A0007F08A100A2010830A300D9
:102F000083160317201C862F2108A2078316031798
:102F10002008A4000310240CA0000310210DA4001D
:102F2000A1002303A400A3002408031D802F22086E
:102F3000080003340034FF340F34A6340134013464
:102F40000034F83407346C34013404340034FC3475
:102F50000734A9340134013400343F3406345B347F
:102F60004F3466346D347D3407347F346F3400342D
:02400E00323F3F
:00000001FF
