:020000040000FA
:1000000000008A110A16D82DF200030E8301F100B8
:100010000A088A01F000040883160317C30083123C
:1000200003130B1D1C28013083160317C000831215
:1000300003130B1160308100831203138B1C2828DB
:100040008A150A16B5208A110A12831203138B101F
:1000500083160317430883120313840070088A0071
:100060008301710E8300F20E720E090083160317CE
:100070001E0883120313D600831603171F0883126A
:100080000313D70083160317200883120313D80025
:1000900083160317210883120313D9000030590275
:1000A000031D5C2800305802031D5C2800305702F5
:1000B000031D5C284C30560203182A290030831295
:1000C00003135902031D6E2800305802031D6E28C9
:1000D00000305702031D6E2823305602031C2A29C4
:1000E00002302B2183120313D600033A031DCC28C0
:1000F0008316031790019101831603171E088312BC
:100100000313D600831603171F0883120313D700A7
:1001100083160317200883120313D80083160317CE
:10012000210883120313D9000530D6070318D70A14
:100130000319D80A0319D90A5608831603179E0013
:10014000831203135708831603179F0083120313A8
:10015000580883160317A000831203135908831647
:100160000317A1000030831203135902031DC22894
:1001700000305802031DC22800305702031DC22858
:100180004C305602031C2A294B30831603179E005D
:100190009F01A001A1012A2901302B218312031301
:1001A000D600033A031D2A298316031790019101F3
:1001B000831603171E0883120313D6008316031732
:1001C0001F0883120313D700831603172008831216
:1001D0000313D80083160317210883120313D900D1
:1001E000FB30D607FF30031CD707FF30031CD807AE
:1001F000FF30031CD9075608831603179E0083128D
:1002000003135708831603179F008312031358081C
:1002100083160317A00083120313590883160317CC
:10022000A1000030831203135902031D212900305D
:100230005802031D212900305702031D21292330B4
:10024000560203182A292330831603179E009F01A4
:10025000A001A101080083120313D2000330FF00A4
:1002600052088A150A16F8208A110A1283120313FB
:10027000D300D40153085A3ED2000030D5000030DC
:100280000318540FD5070230D2070318D50A5208B5
:1002900083120313840083138312031355188317E7
:1002A00083120313000883120313D3000800831280
:1002B0000313CA010330FF00831203134A088A158F
:1002C0000A16F8208A110A1283120313CB00CC01FC
:1002D0004B085A3ECD000030CE00003003184C0FC2
:1002E000CE074B085A3ECB004C0803184C0F003E7B
:1002F000CC00CB0A0319CC0A4B08831203138400E9
:100300008313831203134C188317831203130008FB
:1003100083120313CF004D08831203138400831349
:10032000831203134E1883174F08831203138000A0
:100330000430831203134A020318132A0130831274
:1003400003138A00AC30831203134A07031CAB2942
:10035000831203138A0A8200B029C929E229FB29E2
:100360000030FF0001308A110A12F2238A110A12AA
:1003700083120313CD004B088312031384008313ED
:10038000831203134C1883174D0883120313800044
:10039000132A0130FF0001308A110A12F2238A1158
:1003A0000A1283120313CD004B0883120313840037
:1003B0008313831203134C1883174D0883120313FE
:1003C0008000132A0230FF0001308A110A12F22342
:1003D0008A110A1283120313CD004B0883120313F0
:1003E00084008313831203134C1883174D08831260
:1003F00003138000132A0330FF0001308A110A1210
:10040000F2238A110A1283120313CD004B088312C0
:10041000031384008313831203134C1883174D08AE
:100420008312031380000330FF00831203134A0872
:100430008A150A16F8208A110A1283120313CB00B8
:10044000CC014B085A3ECB00003003184C0F003E45
:10045000CC0002304B07CD00CE01CE0D4C08CE07AC
:100460004D088312031384008313831203134E1861
:10047000831783120313000883120313CF00043081
:100480004F020318182B0230831203138A005130D5
:10049000831203134F07031C502A831203138A0A83
:1004A0008200552A902AB92AF42A831203134B0892
:1004B0008312031384008313831203134C188317CE
:1004C00083120313000883120313CF004F08031D88
:1004D000182B01304B07CF00D001D00D4C08D007AE
:1004E0004F088312031384008313831203135018DD
:1004F000831783120313000883120313D1005108DA
:10050000031D182B4D0883120313840083138312D9
:1005100003134E1883170130831203138000182B26
:100520000130831203134B07CF00D001D00D4C08CC
:10053000D0074F088312031384008313831203131D
:100540005018831783120313000883120313D1007A
:100550005108031D182B4D088312031384008313C5
:10056000831203134E188317023083120313800083
:10057000182B831203134B08831203138400831375
:10058000831203134C18831783120313000883127A
:100590000313CF00013A031D182B01304B07CF0086
:1005A000D001D00D4C08D0074F08831203138400EC
:1005B0008313831203135018831783120313000845
:1005C00083120313D100013A031D182B4D08831227
:1005D000031384008313831203134E18831703300D
:1005E000831203138000182B83120313CB0A031901
:1005F000CC0A4B0883120313840083138312031362
:100600004C18831783120313000883120313CF00BF
:10061000013A031D182B4D08831203138400831322
:10062000831203134E1883170030831203138000C4
:1006300083120313CA0A04304A02031C5A293620C3
:10064000080083120313C5007F08C600043045026A
:100650000318672B0330831203138A003830831288
:1006600003134507031C372B831203138A0A8200E6
:100670003C2B472B522B5D2B0130FE000030FF003E
:1006800001308A110A125F268A110A12672B013083
:10069000FE000130FF0001308A110A125F268A1124
:1006A0000A12672B0130FE000230FF0001308A1170
:1006B0000A125F268A110A12672B0130FE000330EE
:1006C000FF0001308A110A125F268A110A120330D4
:1006D000FF008312031345088A150A16F8208A11B1
:1006E0000A1283120313C700C80147085A3EC70005
:1006F0000030C50000300318480FC5070230470717
:10070000C800C901C90D4508C90748088312031369
:100710008400831383120313491883174608831236
:100720000313800004308312031346020318F12BD5
:100730000330831203138A00A63083120313460783
:10074000031CA52B831203138A0A8200AA2BD02B29
:10075000D02BAA2B831203134708831203138400A0
:100760008313831203134518831701308312031375
:1007700080000130831203134707C600C801C80D6B
:100780004508C807460883120313840083138312A5
:100790000313481883170130831203138000F12BD1
:1007A00083120313470883120313840083138312F5
:1007B000031345188317003083120313800083123C
:1007C0000313C70A0319C50A4708831203138400D9
:1007D0008313831203134518831700308312031306
:1007E0008000080083160313B2007F08B300B40131
:1007F0000530320203180D2D0430831203138A00D2
:100800000A30831603133207031C092C83120313C7
:100810008A0A82000F2C422C752CA82CDB2C00306D
:1008200083160313B5000130B2003308003C0319EE
:10083000202C83160313B20DB50D013E031C192C99
:1008400083120313050883160313B600B701360895
:10085000B2050030B5053508B7003208B6003308D8
:10086000003C03193D2C031083160313B71B03141C
:10087000B70CB60C013E031C332C83160313360849
:10088000B4000D2D003083160313B5000130B20003
:100890003308003C0319532C83160313B20DB50D16
:1008A000013E031C4C2C831203130608831603130A
:1008B000B600B7013608B2050030B5053508B700F7
:1008C0003208B6003308003C0319702C031083165D
:1008D0000313B71B0314B70CB60C013E031C662CA4
:1008E000831603133608B4000D2D0030831603134E
:1008F000B5000130B2003308003C0319862C831682
:100900000313B20DB50D013E031C7F2C831203139C
:10091000070883160313B600B7013608B205003086
:10092000B5053508B7003208B6003308003C031996
:10093000A32C031083160313B71B0314B70CB60CB8
:10094000013E031C992C831603133608B4000D2DA9
:10095000003083160313B5000130B2003308003CA9
:100960000319B92C83160313B20DB50D013E031CF8
:10097000B22C83120313080883160313B600B701C1
:100980003608B2050030B5053508B7003208B600A4
:100990003308003C0319D62C031083160313B71B2E
:1009A0000314B70CB60C013E031CCC2C83160313A6
:1009B0003608B4000D2D003083160313B500013046
:1009C000B2003308003C0319EC2C83160313B20D5C
:1009D000B50D013E031CE52C831203130908831691
:1009E0000313B600B7013608B2050030B505350867
:1009F000B7003208B6003308003C0319092D031074
:100A000083160313B71B0314B70CB60C013E031C6B
:100A1000FF2C831603133608B4008316031334081F
:100A2000080083160313AB007F08AC00AD01003053
:100A300083160313AF000130AE002D08003C0319EC
:100A4000282D83160313AE0DAF0D013E031C212D7F
:100A500083160313B1012C08B000AE050030AF05BA
:100A60002F08B1002E08B0002D08003C0319422DBC
:100A7000031083160313B11B0314B10CB00C013E19
:100A8000031C382D831603133008AE00FE002D081A
:100A9000FF002B08532583160313AD0A08302D02DF
:100AA000031C172D080083160313A7007F08A80056
:100AB0007E08A900053027020318472E053083124F
:100AC00003138A006C30831603132707031C6B2D56
:100AD000831203138A0A8200712D9C2DC72DF22DDB
:100AE0001D2E013083160313A7002808003C0319AC
:100AF0007F2D83160313A70D013E031C792D83164A
:100B00000313A70983120313050883160313A7050C
:100B10002908AA002808003C0319942D8316031302
:100B2000AA0D013E031C8E2D831603132A082704E9
:100B3000831203138500472E013083160313A70089
:100B40002808003C0319AA2D83160313A70D013EA4
:100B5000031CA42D83160313A7098312031306088D
:100B600083160313A7052908AA002808003C0319C7
:100B7000BF2D83160313AA0D013E031CB92D831646
:100B800003132A082704831203138600472E01301B
:100B900083160313A7002808003C0319D52D8316DC
:100BA0000313A70D013E031CCF2D83160313A709C2
:100BB00083120313070883160313A7052908AA0045
:100BC0002808003C0319EA2D83160313AA0D013EE1
:100BD000031CE42D831603132A082704831203132E
:100BE0008700472E013083160313A7002808003C16
:100BF0000319002E83160313A70D013E031CFA2DC3
:100C000083160313A709831203130808831603131B
:100C1000A7052908AA002808003C0319152E8316E9
:100C20000313AA0D013E031C0F2E831603132A087B
:100C30002704831203138800472E01308316031301
:100C4000A7002808003C03192B2E83160313A70DB9
:100C5000013E031C252E83160313A70983120313D9
:100C6000090883160313A7052908AA002808003CD1
:100C70000319402E83160313AA0D013E031C3A2EBE
:100C8000831603132A08270483120313890008001C
:100C9000080083160313A4007F08A500A60183168D
:100CA00003132508FE002608FF0024085F2683168C
:100CB0000313A60A08302602031C4F2E08008316D1
:100CC0000313A0007F08A1007E08A20005302002C7
:100CD0000318532F0630831203138A0078308316CB
:100CE00003132007031C772E831203138A0A820042
:100CF0007D2EA82ED32EFE2E292F0130831603130E
:100D0000A0002108003C03198B2E83160313A00DAD
:100D1000013E031C852E83160313A00983160313BB
:100D2000050883160313A0052208A3002108003C30
:100D30000319A02E83160313A30D013E031C9A2E44
:100D40008316031323082004831603138500532FEF
:100D5000013083160313A0002108003C0319B62EAE
:100D600083160313A00D013E031CB02E831603133C
:100D7000A00983160313060883160313A00522088F
:100D8000A3002108003C0319CB2E83160313A30DE7
:100D9000013E031CC52E831603132308200483166B
:100DA00003138600532F013083160313A00021087C
:100DB000003C0319E12E83160313A00D013E031C12
:100DC000DB2E83160313A00983160313070883166B
:100DD0000313A0052208A3002108003C0319F62EE6
:100DE00083160313A30D013E031CF02E8316031379
:100DF00023082004831603138700532F0130831622
:100E00000313A0002108003C03190C2F83160313C1
:100E1000A00D013E031C062F83160313A0098316A1
:100E20000313080883160313A0052208A300210852
:100E3000003C0319212F83160313A30D013E031C4D
:100E40001B2F831603132308200483160313880023
:100E5000532F013083160313A0002108003C03190F
:100E6000372F83160313A00D013E031C312F831669
:100E70000313A00983160313090883160313A0059F
:100E80002208A3002108003C03194C2F83160313EA
:100E9000A30D013E031C462F8316031323082004D1
:100EA000831603138900080083120317E4007F08E8
:100EB000E3009827831603139115982783120313D1
:100EC000130883120317E500E6019827831203171E
:100ED00063086404003003190130E300630C031855
:100EE000742F831603139112031C792F8316031397
:100EF0009116831603131116831203176508FF005A
:100F0000660808007F0883120317E20098278312FF
:100F100003176208831203139300080098278316AF
:100F200003131115080098278316031311140800E2
:100F30008316031311081F39031D982F1419982FB6
:100F4000080083120317E0007F08DF007E08DE0040
:100F50007D08DD00831603138715071628308312DA
:100F600003139400831603139101831203175D0882
:100F7000F9005E08FA005F08FB006008FC00903092
:100F8000FD000130FE000030FF0000308A110A161B
:100F90002A258A110A1283120317E0007F08DF0056
:100FA0007E08DE007D08DD00F9005E08FA005F08BB
:100FB000FB006008FC000030FD001230FE007A30BB
:100FC000FF0000308A110A1674268A110A12831251
:100FD0000317E0007F08DF007E08DE007D08DD00EB
:0E0FE000E100610383160313930094010800DF
:1010000083120313A3007F08A2007E08A1007D08BD
:1010100083120313BD0083120313A0007C08A700F2
:101020007B08A6007A08A500790883120313C10083
:1010300083120313A400210883120313BE0083123A
:101040000313220883120313BF0083120313230820
:1010500083120313C00083120313250883120313A2
:10106000C20083120313260883120313C3008312E2
:101070000313270883120313C400831203133D08CC
:1010800083120313A400A000831203133E088312EB
:101090000313A500A100831203133F088312031357
:1010A000A600A20083120313400883120313A700B3
:1010B000A300260D270DA400A000A101A10DA201EF
:1010C000A301A501A601A7012408A0000030A100EA
:1010D00083120313410883120313A600A200831294
:1010E0000313420883120313A700A3008312031300
:1010F000430883120313A800A400831203134408B7
:1011000083120313A900A500280D290DA600A20033
:10111000A301A30DA401A501A701A801A90120080D
:10112000A2002108A3000030A31BFF30A500A400EB
:1011300026082202A6002708031C270FA12823083F
:10114000A42883120313230283120313A700280881
:10115000031C280FAD282408B0288312031324028F
:1011600083120313A8002908031C290A2502A900D9
:101170002608A0002708A1007E30A0070318A10AB6
:10118000831203133D0883120313A600A2008312E7
:1011900003133E0883120313A700A3008312031353
:1011A0003F0883120313A800A4008312031340080E
:1011B00083120313A500A9008039031D0130A2008A
:1011C00083120313410883120313AA00A60083129B
:1011D0000313420883120313AB00A7008312031307
:1011E000430883120313AC00A800831203134408BE
:1011F00083120313A900AD008039031D0130A6003E
:10120000A20683120313410883120313A60083125C
:101210000313420883120313AA0083120313430823
:1012200083120313AB0083120313440883120313C6
:10123000AC0026082A042B042C04031D4529831224
:101240000313C101C201C030C3007F30C400410894
:1012500083120313A600831203134208831203139D
:10126000AA0083120313430883120313AB008312F3
:101270000313440883120313AC002608FD002A0858
:10128000FE002B08FF002C08FB2A831203133D08E5
:1012900083120313A600831203133E088312031361
:1012A000AA00831203133F0883120313AB008312B7
:1012B0000313400883120313AC0026082A042B04EE
:1012C0002C04031D6B290030FD000030FE000030AF
:1012D000FF000030FB2A831203133D08831203131F
:1012E000AD00A600831203133E0883120313AE0061
:1012F000AA00831203133F0883120313AF00AB004D
:1013000083120313400883120313B000AC002D08AE
:10131000A6002E08AA007F302F05AB00AC01AB174A
:1013200083120313410883120313B100AD0083122B
:101330000313420883120313B200AE008312031397
:10134000430883120313B300AF008312031344084E
:1013500083120313B400B0003208AE007F303305AF
:10136000AF00B001AF170030803EB5000030803EC6
:101370003502031DC5292F082B02031DC5292E0880
:101380002A02031DC5292D0826020318D22903109D
:1013900083120313A60DAA0DAB0DAC0DFF30A007F1
:1013A000031CA10383120313B101B201B301013085
:1013B000B400B501B601B701B801831203133108B7
:1013C00032043304340403192A2A2C08803EB9005D
:1013D0003008803E3902031DF7292F082B02031D18
:1013E000F7292E082A02031DF7292D082602031CBF
:1013F0001D2A831203133508B9003608BA003708CE
:10140000BB003808BC0031083904B50032083A0482
:10141000B60033083B04B70034083C04B8002D087C
:10142000A6022E08031C2E0FAA022F08031C2F0F42
:10143000AB023008031C300FAC02031083120313FD
:10144000A60DAA0DAB0DAC0D0310B40CB30CB20C71
:10145000B10CDD2983120313B50A0319B60A031967
:10146000B70A0319B80AA00A0319A10A0310B81B86
:101470000314B80CB70CB60CB50C3508A60036082A
:10148000AA003708AB003808AC007F302B05B70046
:101490002108803E7F3E031D4F2A00302002031C9E
:1014A0007E2A83120313220803195C2AA601AA01CB
:1014B000AB018030AC00622A83120313A601AA019B
:1014C000AB01AC0183120313AB177F30AC042608C9
:1014D00083120313BD00831203132A08831203131C
:1014E000BE00831203132B0883120313BF00831261
:1014F00003132C0883120313C000DC2A0314831285
:101500000313A11F0310031C8C2A83120313BD01B4
:10151000BE01BF01C001DC2A003083120313220484
:101520000319982AA201A601AA018030AB009E2AC5
:1015300083120313A201A601AA01AB0183120313B4
:101540002008AC002108AD000030AD1BFF30AF001B
:10155000AE002D0C2C0CB100B001B00CA101A0010B
:101560000030A2040030A6043008AA043108AB04FD
:101570003508A000220483120313BD008312031355
:10158000B5003608A100260483120313BE0083129F
:101590000313B6003708AC002A0483120313BF00FC
:1015A00083120313B7003808AD002B048312031312
:1015B000C00083120313B800831203133D08831283
:1015C0000313A000831203133E0883120313A10028
:1015D000831203133F0883120313A2008312031321
:1015E000400883120313A6002008FD002108FE0016
:1015F0002208FF0026080800003083160317410464
:101600000319AF2B831603171E0883160313E80074
:10161000831603171F0883160313E90083160317A5
:10162000200883160313EA00831603172108831684
:101630000313EB00E830F9000330FA000030FB0040
:101640000030FC006808FD006908FE006A08FF0021
:101650006B088A110A165F278A150A12831603136C
:10166000EB007F08EA007E08E9007D08E8006430AE
:10167000F9000030FA000030FB000030FC00680880
:10168000FD006908FE006A08FF006B088A110A164F
:101690005F278A150A1283160313EB007F08EA00FE
:1016A0007E08E9007D08E8000A30F9000030FA0001
:1016B0000030FB000030FC006808FD006908FE00F7
:1016C0006A08FF006B088A110A1674268A150A1226
:1016D00083160313EB007F08EA007E08E9007D080B
:1016E000E800EC00FF000030EA24831603171E0810
:1016F00083160313E800831603171F0883160313CA
:10170000E90083160317200883160313EA008316E3
:101710000317210883160313EB000A30F900003089
:10172000FA000030FB000030FC006808FD0069088A
:10173000FE006A08FF006B088A110A165F278A15E7
:101740000A1283160313EB007F08EA007E08E90003
:101750007D08E800EC00FF000130EA245B2C8316D2
:1017600003171A0883160313E800831603171B08D0
:1017700083160313E900831603171C08831603134B
:10178000EA00831603171D0883160313EB00E830E5
:10179000F9000330FA000030FB000030FC0068085C
:1017A000FD006908FE006A08FF006B088A110A162E
:1017B0005F278A150A1283160313EB007F08EA00DD
:1017C0007E08E9007D08E8006430F9000030FA0086
:1017D0000030FB000030FC006808FD006908FE00D6
:1017E0006A08FF006B088A110A165F278A150A1219
:1017F00083160313EB007F08EA007E08E9007D08EA
:10180000E8000A30F9000030FA000030FB00003038
:10181000FC006808FD006908FE006A08FF006B080C
:101820008A110A1674268A150A1283160313EB000E
:101830007F08EA007E08E9007D08E800EC00FF0070
:101840000030EA24831603171A0883160313E800EE
:10185000831603171B0883160313E9008316031767
:101860001C0883160313EA00831603171D0883164A
:101870000313EB000A30F9000030FA000030FB00DF
:101880000030FC006808FD006908FE006A08FF00DF
:101890006B088A110A165F278A150A12831603132A
:1018A000EB007F08EA007E08E9007D08E800EC0014
:1018B000FF000130EA240030FF0000300425003032
:1018C000FF0001300425831603136D08EE3E8316D6
:1018D0000313E80000300318013EE9006808831292
:1018E0000313840083138316031369188317831269
:1018F0000313000883160313EA00F23EE8000F30DA
:101900000318013EE9006808FE006908FF00803006
:101910008A110A16C5278A150A1283160313EA00CC
:10192000FF0003308A110A1211258A150A12831644
:1019300003172F0883160313E800FF008316031311
:101940006D080425831603136D08013A031DAA2CA4
:10195000ED01AD2C83160313ED0A08008316031363
:10196000E600EE3EE60000300318013EE7006608A0
:1019700083120313840083138316031367188317DA
:10198000831203130008080083160313E400E50024
:1019900065080319D02C6408013A0319DC2CE82CE3
:1019A0000430FF0000308A110A12F2238A150A124D
:1019B00083160313E400E92C0530FF0000308A1180
:1019C0000A12F2238A150A1283160313E400E92C83
:1019D0000030080083160313E1007F08E20061086D
:1019E000EE3EE10000300318013EE300610883127F
:1019F0000313840083138316031363188317620889
:101A0000831203138000080083160313E1007F088C
:101A1000E20061080319112D6108013A03191E2D16
:101A20002A2D831603136208FE000430FF000030E5
:101A30008A110A1253258A150A122A2D83160313B6
:101A40006208FE000530FF0000308A110A1253259B
:101A50008A150A12080083160313DD007F08DE00D2
:101A60007E08DF000030FF0003308A110A12492689
:101A70008A150A12FC30FE000F30FF0080308A11F8
:101A80000A16C5278A150A1283160313E000FF0001
:101A900003308A110A1211258A150A1283160313BC
:101AA0005D08E0000319592D5D08013A0319642D02
:101AB0006E2D0030FE000430FF0000308A110A1243
:101AC0005F268A150A126E2D0030FE000530FF00D9
:101AD00000308A110A125F268A150A128316031330
:101AE0005E08FF005D088A150A1204258A150A128D
:101AF000831603135F08FF005D088A150A12EA24A3
:101B00008A150A1208000030FF0000308A150A12F8
:101B100004258A150A120030FF0001308A150A12C6
:101B200004258A150A1283160317B101B201023087
:101B3000B00083160317900191019201930183165F
:101B400003179A019B019C019D0183160317AF01A6
:101B5000FA308316031790009101080083160317CB
:101B6000B101B2010230B0008316031712088316C8
:101B70000313D90083160317130883160313DA001F
:101B80005908193A031DD82D5A08003A031DD82DBB
:101B9000831603172F0883160313D9000130D906C3
:101BA000590883160317AF00831603179201930198
:101BB00083160317120883160313D900831603171D
:101BC000130883160313DA00D90A0319DA0A59082D
:101BD000831603179200831603135A0883160317FC
:101BE0009300100883160313D900831603171108F6
:101BF00083160313DA00D90A0319DA0A590883167F
:101C000003179000831603135A08831603179100D5
:101C1000160883160313D9008316031717088316B3
:101C20000313DA0083160317180883160313DB0067
:101C300083160317190883160313DC00D90A031946
:101C4000DA0A0319DB0A0319DC0A59088316031799
:101C50009600831603135A088316031797008316FA
:101C600003135B08831603179800831603135C089D
:101C70008316031799000800013083160317AF007D
:101C8000831603171A0883160313CD008316031750
:101C90001B0883160313CE00831603171C08831634
:101CA0000313CF00831603171D0883160313D000F8
:101CB000831603171E0883160313D1008316031718
:101CC0001F0883160313D2008316031720088316F8
:101CD0000313D30083160317210883160313D400BC
:101CE000FB305107D500FF30D60052080318520FC1
:101CF000D607FF30D70053080318530FD707FF301C
:101D0000D80054080318540FD80750085802031D70
:101D1000932E4F085702031D932E4E085602031DA3
:101D2000932E4D085502031C9C2E01308316031779
:101D3000B000B100B201D22E831603171A08831621
:101D40000313CD00831603171B0883160313CE005D
:101D5000831603171C0883160313CF00831603177B
:101D60001D0883160313D0000530D1070318D20ACB
:101D70000319D30A0319D40A54085002031DCA2EAA
:101D800053084F02031DCA2E52084E02031DCA2ECD
:101D900051084D02031CD22E83160317B001B10166
:101DA0000130B200080083160317330883160313AB
:101DB000CB000319E02E4B08013A0319E22EF92E4D
:101DC0008325F92E83160317100883160313CB00FF
:101DD00083160317110883160313CC004B08FA3A35
:101DE000031DF82E4C08003A031DF82E3C26F92E50
:101DF000AE25080083120313ED0004306D05EE00DC
:101E000003106E0CEF000310EF0C6F0C03180B2F78
:101E1000831203139F12031C102F831203139F16A8
:101E20000230831203136D05EE0003106E0CEF00F9
:101E30006F0C03181E2F831203131F12031C232F72
:101E4000831203131F16831203136D080139EE006A
:101E5000ED006D0C03182F2F831203139F11031C29
:101E6000342F831203139F15831603139F178312B6
:101E700003131F141F158B170B17831603130C174F
:101E8000080083120313E90004306905EA00031017
:101E90006A0CEB000310EB0C6B0C0318522F83122F
:101EA00003139F12031C572F831203139F16023034
:101EB000831203136905EA0003106A0CEB006B0C34
:101EC0000318652F831203131F12031C6A2F83123A
:101ED00003131F168312031369080139EA00E9008E
:101EE000690C0318762F831203139F11031C7B2F99
:101EF000831203139F15831603139F178312031373
:101F00001F141F1583120313E901831203131F1DEE
:101F10008C2F83120313E90A831203136908EA0062
:101F2000013A0319822F831203131E08831203132D
:101F3000EC00E900EA01EB01831603131E0883128B
:101F40000313E900EA016908EB040030EC046B08B4
:101F5000FF006C080800080083120313E6008312D8
:101F600003131F100430831203136605E7000310E8
:101F7000670CE8000310E80C680C0318C22F8316E6
:101F800003131F13031CC72F831603131F170230DD
:101F9000831203136605E7000310670CE800680C62
:101FA0000318D52F831203139F13031CDA2F8312F8
:101FB00003139F178312031366080139E700E60035
:101FC000660C0318E62F831203131F13031CEB2F59
:101FD000831203131F17831603139F111F119F14DE
:101FE0001F1008003F3406345B344F3466346D34C0
:101FF0007D3407347F346F3400340A3400340034C5
:1020000083160317340883160313C600031D232801
:102010002B30FF0000300B2183160313C600FF3A5C
:10202000031D1E283C30FE001430FF000030A520A8
:102030000030FE002B30FF000030A5200130831659
:102040000317B400A4288316031716088316031376
:10205000C60083160317170883160313C7008316D9
:102060000317180883160313C800831603171908EB
:1020700083160313C90000304902031D49280030AC
:102080004802031D492800304702031D4928FA3041
:102090004602031C842883160317100883160313B3
:1020A000C60083160317110883160313C7004608DA
:1020B000FA3A031D84284708003A031D8428831632
:1020C00003171E0883160313C600831603171F0881
:1020D00083160313C7008316031720088316031300
:1020E000C80083160317210883160313C900460886
:1020F000CA00FE001430FF000030A520831603172D
:1021000096019701980199018316031733088316E6
:102110000313C6004608031DA4281430FF00003036
:102120000B2183160313C600831603179E00831624
:102130000313C700C801C901CA0100308316031781
:102140009F00A0000030A100080083160313BD000B
:102150007F08BC007E08BE00BF00C001BE01013088
:102160003D05C100BE00C200C301C3013C08C2005E
:10217000C100C2018A110A1293278A110A16831616
:1021800003133E080319CD28A230FF0000308A1146
:102190000A1282278A110A16D528A030FF000030C3
:1021A0008A110A1282278A110A1683160313C401A0
:1021B0004108C300FF0000308A110A1282278A11E9
:1021C0000A16831603133F08FF0040088A110A12FB
:1021D00082278A110A168A110A128E278A110A1674
:1021E00083160313C20A3C08FF003D080B21831627
:1021F0000313C300C400C50144083F06031D04299E
:102200004508400603190A290A30831603134202BF
:10221000031CBA28080083160313B9007F08B8000E
:10222000BA0101303905BB00BA00B9013808BB005A
:102230008A110A1293278A110A16831603133A0881
:1022400003192B29A230FF0000308A110A128227BD
:102250008A110A163329A030FF0000308A110A12B1
:1022600082278A110A1683160313B9013B08B800A6
:10227000FF0000308A110A1282278A110A168A1179
:102280000A1293278A110A16831603133A080319B0
:102290005229A330FF0000308A110A1282278A11C6
:1022A0000A165A29A130FF0000308A110A1282272B
:1022B0008A110A160130FF0000308A110A125427D1
:1022C0008A110A1683160313B9007F08B800BA00F2
:1022D0008A110A128E278A110A16831603133A08E6
:1022E000080083160317AE00E121013A031D7F2980
:1022F0000030FF00831603172E0886218529013040
:10230000FF00831603172E08862108008316031783
:10231000AC007F08AD002C08013A0319A0292C0855
:10232000023A0319AD292C08033A0319BA292C08DB
:10233000043A0319C7292C08073A0319D429E029BC
:10234000831603172D08FE000030FF0001308A11AC
:102350000A1253258A110A16E029831603172D083D
:10236000FE000130FF0001308A110A1253258A1144
:102370000A16E029831603172D08FE000230FF001D
:1023800001308A110A1253258A110A16E029831690
:1023900003172D08FE000330FF0001308A110A12D6
:1023A00053258A110A16E029831603172D08FE000B
:1023B0000730FF0001308A110A1253258A110A16CC
:1023C000080083160317AC00AD012C08013A03196D
:1023D000FA292C08023A0319062A2C08033A031991
:1023E000122A2C08043A03191E2A2C08073A03194A
:1023F0002A2A352A0030FF0001308A110A12F223FE
:102400008A110A1683160317AD00352A0130FF0022
:1024100001308A110A12F2238A110A168316031751
:10242000AD00352A0230FF0001308A110A12F22372
:102430008A110A1683160317AD00352A0330FF00F0
:1024400001308A110A12F2238A110A168316031721
:10245000AD00352A0730FF0001308A110A12F2233D
:102460008A110A1683160317AD00831603172D0869
:10247000080083160317300883160317AB000330D8
:102480002B0203187A2A1230831203138A00513068
:10249000831603172B07031C502A831203138A0A7F
:1024A0008200542A592A762A0130FF0007308621FB
:1024B0007A2A83160317140883160317AB00323ADF
:1024C000031D6A2A073071218316031794018312B2
:1024D0000313871783160317140883160317AB001B
:1024E000AB0A2B088316031794007A2A0030FF00EA
:1024F00007308621080083160317A9007F08AA0069
:102500002908013A0319952A2908023A0319A02A31
:102510002908033A0319AB2A2908043A0319B62AF1
:102520002908073A0319C12ACB2A0030FE000030DF
:10253000FF0001308A110A125F268A110A16CB2A7F
:102540000030FE000130FF0001308A110A125F26C0
:102550008A110A16CB2A0030FE000230FF0001303B
:102560008A110A125F268A110A16CB2A0030FE0051
:102570000330FF0001308A110A125F268A110A1601
:10258000CB2A0030FE000730FF0001308A110A120A
:102590005F268A110A16831603172A08FF002908E6
:1025A0008621080083120317B4007F08B3007E0859
:1025B000B2007D08B10083120317BD008312031718
:1025C000320883120317BE008312031733088312E5
:1025D0000317BF0083120317340883120317C000C8
:1025E0003D0883120317B100831203173E088312BC
:1025F0000317B200831203173F0883120317B300B7
:1026000083120317400883120317B4003108320401
:102610003304340403192F2B831203173D0883124C
:102620000317B500B100831203173E088312031786
:10263000B600B200831203173F0883120317B700D6
:10264000B30083120317400883120317B400B800C5
:102650008039031D0130B10031080319372B0030D8
:10266000FD000030FE000030FF000030B92B831267
:1026700003173D0883120317B800B1008312031734
:102680003E0883120317B900B500831203173F08F1
:1026900083120317BA00B60083120317400883128F
:1026A0000317BB00B7003A0D3B0DB800B100B501F0
:1026B000B50DB601B701B901BA01BB016A30B8075F
:1026C000FF30031CB907FF30031CBA07FF30031C9F
:1026D000BB073808B1003908B500831203173D085D
:1026E00083120317BA00B600831203173E08831241
:1026F0000317BB00B700831203173F0883120317A9
:10270000BC00B80083120317400883120317B900F6
:102710003A08B6003B08B7007F303C05B800B90165
:10272000B817B109B509B10A0319B50A3108B11BC7
:10273000A62B003C0319B02B83120317B90CB80C5D
:10274000B70CB60C013E031C9C2BB02B031083125C
:102750000317B60DB70DB80DB90D013E031CA72B1D
:10276000831203173608FD003708FE003808FF0003
:102770003908080083120317A4007F08A3007E080D
:10278000A2007D08A100220423042404031DD02BF1
:102790000030FD000030FE000030FF000030782CDB
:1027A000963083120317A500A6018312031724088D
:1027B000FF390319E42B0310A40CA30CA20CA10CE9
:1027C000A50A0319A60AD52B003083120317240289
:1027D000031DF42B80302302031DF42B0030220252
:1027E000031DF42B003021020318022C0310831266
:1027F0000317A10DA20DA30DA40DFF30A507031C07
:10280000A603E42B831203172508A7002608A800B7
:102810002208AA007F302305AB00AC012108A900E3
:10282000FF3A031D2A2C2A08FF3A031D2A2C2B08E5
:102830007F3A031D2A2C2C08003A031D2A2CA101E3
:10284000A201A301A40101302507A700A801A80D3A
:102850002608A80783120317A3132708A500280832
:10286000A6000030A61BFF30AA00A900260C250CEC
:10287000AC00AB01AB0CA801A7010030A1040030F3
:10288000A2042B08A3042C08A40421088312031714
:10289000AD0083120317220883120317AE008312C0
:1028A0000317230883120317AF00831203172408AA
:1028B00083120317B0002D0883120317A10083129F
:1028C00003172E0883120317A200831203172F0881
:1028D00083120317A3008312031730088312031710
:1028E000A4002108FD002208FE002308FF002408A0
:1028F000080083160317150883160317B5000A3A54
:10290000031D172D02308A150A1241278A110A1653
:1029100083160317B800B6007F08B50083160317A7
:102920009A0083160317B7003808831603179B0015
:1029300000309C009D00831603173708F900380803
:10294000FA000030FB000030FC00EE30FD000230E9
:10295000FE000030FF0000308A110A162A258A1175
:102960000A1683160317B8007F08B7007E08B60062
:102970007D08B500FD003608FE003708FF00380866
:102980008A110A16BA238A110A1683160317B80089
:102990007F08B7007E08B6007D08B5000030F9005A
:1029A000D030FA00BF30FB004430FC003508FD0099
:1029B0003608FE003708FF0038088A150A12002082
:1029C0008A110A1683160317B8007F08B7007E081D
:1029D000B6007D08B500FD003608FE003708FF0090
:1029E00038088A110A16D2228A110A16831603178A
:1029F000B8007F08B7007E08B6007D08B5008316D2
:102A000003179A00831603173608831603179B00D3
:102A1000831603173708831603179C0083160317C2
:102A20003808831603179D00831603179501831634
:102A30000317150883160317B900B90A3908831656
:102A400003179500080001308A150A12AC278A1175
:102A50000A1608008312031793007F0892007E086D
:102A600091007D0890007C0897007B0896007A080A
:102A7000950079089400980199019A019B0108300A
:102A80009C0083120317101C532D14089807150877
:102A90000318150F990716080318160F9A07170839
:102AA0000318170F9B078312031710089D001108C6
:102AB0009E0012089F001308A0001E1C732D16080C
:102AC000A00015089F009D010030980714089E0083
:102AD00003181E0F99071F0803181F0F9A072008D5
:102AE0000318200F9B078312031710089D0011087D
:102AF0009E0012089F001308A0001F1C932D1508AC
:102B0000A00014089F009E019D010030980700302E
:102B100003181E0F99071F0803181F0F9A07200894
:102B20000318200F9B078312031710089D0011083C
:102B30009E0012089F001308A000201CB22D14084C
:102B4000A0009F019E019D010030980700300318EE
:102B50001E0F99071F0803181F0F9A072008031854
:102B6000200F9B078312031710089D0011089E0079
:102B700012089F001308A0000310200C93001F0CE4
:102B800092001E0C91001D0C90000310940D950DE9
:102B9000960D970D1C039D009C001D08031D412DE3
:102BA0001808FD001908FE001A08FF001B0808009D
:102BB0001930FE001930FF0080308A110A16D8271C
:102BC0008A110A1683120317D2007F08D1001B3026
:102BD000D3001930D400831203175108D5005208CE
:102BE000D600FF30D107031CD20355085604031941
:102BF000702E04305307D500D601D60D5408D607E1
:102C00005508FE005608FF0080308A110A16D827A2
:102C10008A110A1683120317D8007F08D7005308B9
:102C2000FE005408FF0080308A110A16D8278A1146
:102C30000A1683120317DA00D6007F08D900D500E0
:102C400002305307D500D601D60D5408D6075508D3
:102C5000FE005608FF0080308A110A16D8278A1114
:102C60000A1683120317D600DC007F08D500DB00AC
:102C7000831203175708DB005808DC00FF30D70722
:102C8000031CD8035B085C040319692E5908FE0075
:102C90005A08FF0080308A110A16C5278A110A16C1
:102CA00083120317DB005508831203138400831378
:102CB00083120317561883175B08831203138000CF
:102CC00083120317D90A0319DA0AD50A0319D60A97
:102CD000382E063083120317D3070318D40AEB2DBE
:102CE0008A110A16F82E080083120317C4007F0801
:102CF000C3007E08C2007D08C1007C08C8007B08B4
:102D0000C7007A08C6007908C500C901CA01CB010D
:102D1000CC010130CD00CE01CF01D00145084604E1
:102D200047044804031D9C2EFF30FD00FF30FE00C9
:102D3000FF30FF00FF30F72E83120317C81BAB2EA6
:102D40000310C50DC60DC70DC80D0310CD0DCE0D5A
:102D5000CF0DD00D9C2E831203174D084E044F0447
:102D600050040319EE2E48084402031DC12E4708E3
:102D70004302031DC12E46084202031DC12E450811
:102D80004102031CE12E831203174D08C9074E08A8
:102D900003184E0FCA074F0803184F0FCB075008F0
:102DA0000318500FCC074508C1024608031C460F04
:102DB000C2024708031C470FC3024808031C480F00
:102DC000C402031083120317C80CC70CC60CC50C31
:102DD0000310D00CCF0CCE0CCD0CAB2E83120317EE
:102DE0004908FD004A08FE004B08FF004C08080097
:102DF0000030FF0002308A110A1221238A110A16BC
:102E00000030FF0001308A110A1221238A110A16AC
:102E10008A150A16C2208A110A160A30FE000030EE
:102E2000FF0000308A150A122B258A110A160A3073
:102E3000FE000030FF0001308A150A122B258A118E
:102E40000A168A150A16ED208A110A168A150A161C
:102E5000AA208A110A160030FF0007308A110A16CC
:102E60007B228A110A168A110A1623258A110A164C
:102E7000E830FD000130FE000030FF0000308A1114
:102E80000A12A1278A110A1683160317B4018A159C
:102E90000A165B208A110A168A150A1652208A1110
:102EA0000A1600308316031740040319512FC0017E
:102EB0008A150A1600208A110A16512F080083125B
:102EC0000317EA007F08E9007E08E8007D08E700B4
:102ED0007C08EE007B08ED007A08EC007908EB0036
:102EE0006C046D046E04031D7D2FFF30FD00FF3068
:102EF000FE00FF30FF00FF30C42F013083120317A4
:102F0000EF0083120317EE1B8C2F0310EB0DEC0D5B
:102F1000ED0DEE0DEF0A812F0030831203176F04C1
:102F20000319BB2F6E086A02031DA02F6D086902EA
:102F3000031DA02F6C086802031DA02F6B086702F9
:102F4000031CB22F831203176B08E7026C08031CE3
:102F50006C0FE8026D08031C6D0FE9026E08031C7C
:102F60006E0FEA02031083120317EE0CED0CEC0C4B
:102F7000EB0CEF038C2F831203176708FD00680822
:102F8000FE006908FF006A080800003A0319CC2F08
:102F9000803A0319D32F00347E08840083137F18EE
:102FA0008317000808007F088A007E088200080056
:102FB000003A0319E02F803A0319EA2FFF01003489
:102FC0007E08840083137F1883170008FF00840A9B
:102FD000000808008A110A16D327FD00FE0FFF0320
:102FE000FF0A8A110A16D327FC007D08FF007C081F
:062FF0000800013400346A
:1030000083160317330883160317C200013A031D02
:1030100032288A110A1257218A150A168A150A12AD
:10302000FC228A150A168A110A1679248A150A16AC
:103030008A110A1639228A150A168A150A16D72005
:103040008A150A168A150A1692208A150A168A15F2
:103050000A12D3268A150A168A110A1600208A1522
:103060000A1651280030831603174204031D512805
:103070008A150A12D3268A150A168A150A16D72027
:103080008A150A168A150A1692208A150A168A11B6
:103090000A1600208A150A168A110A1639228A157C
:1030A0000A160800831203138B168B17831603135B
:1030B00081128112080083160313811681110115F4
:1030C00081140114080083160317A200A301A401B0
:1030D000831603172208A500A60100302402031D51
:1030E00073282508230203189128783083160317C4
:1030F000A500A601FF30831603172507A700FF30A0
:10310000A80026080318260FA8072708A5002808E6
:10311000A60027082804031D7A28A30A0319A40A75
:1031200068280800831603173208A0200800023020
:10313000FF0002308A110A12F2238A150A160800CB
:10314000FE000230FF0002308A110A1253258A1550
:103150000A1608000030FE000230FF0002308A111B
:103160000A125F268A150A16080083160317330809
:1031700083160317BF000130BF063F0883160317ED
:10318000B30008000130FE000030FF0001308A115A
:103190000A125F268A150A16831203138B170B1661
:1031A000831603130117831203138B100800831671
:1031B00003173108FE000530FF0002308A110A12A1
:1031C00053258A150A1608000530FF0002308A11BF
:1031D0000A12F2238A150A1608000030FE00053094
:1031E000FF0002308A110A125F268A150A160800AB
:1031F00083160317BA007F08BB00BC010830BD006E
:10320000831603173A1C06293B08BC0783160317CD
:103210003A08BE0003103E0CBA0003103B0DBE007E
:10322000BB003D03BE00BD003E08031D00293C0855
:10323000080004340034FF340F34C0340134013446
:103240000034F9341734C134013401340034FD340E
:103250000F34EE34003402340034FA341734C434FA
:06326000013401340034CA
:02400E00323F3F
:00000001FF
